:020000040800F2
:10000000403C002069020008A1780008F94200087D
:100010009D7800088506000811B300080000000064
:100020000000000000000000000000002181000826
:10003000A90A000800000000A97C0008B18100089E
:10004000830200088302000883020008830200087C
:10005000830200088302000883020008830200086C
:10006000830200088302000883020008830200085C
:10007000830200088302000883020008830200084C
:10008000830200088302000883020008830200083C
:10009000830200088302000883020008830200082C
:1000A000830200088302000883020008830200081C
:1000B000830200088302000883020008830200080C
:1000C000830200088302000883020008AD7C000858
:1000D00083020008830200088302000883020008EC
:1000E000AD0A0008830200088302000883020008AA
:1000F00083020008830200088302000883020008CC
:1001000083020008830200088302000883020008BB
:1001100083020008830200088302000883020008AB
:10012000D50800088302000883020008E9080008D7
:1001300083020008000000000000000083020008A5
:10014000830200088302000883020008830200087B
:10015000830200088302000883020008830200086B
:10016000830200088302000883020008830200085B
:100170008302000811790008000000000000000060
:10018000830200088302000800F002F800F05CF827
:100190000AA090E8000C82448344AAF10107DA45E2
:1001A00001D100F051F8AFF2090EBAE80F0013F0D8
:1001B000010F18BFFB1A43F001031847CCE1000000
:1001C000ECE100000A444FF0000C10F8013B13F082
:1001D000070408BF10F8014B1D1108BF10F8015BA0
:1001E000641E05D010F8016B641E01F8016BF9D193
:1001F00013F0080F1EBF10F8014BAD1C0C1B09D1EA
:100200006D1E58BF01F801CBFAD505E014F8016B5B
:1002100001F8016B6D1EF9D59142D6D370470000ED
:100220000023002400250026103A28BF78C1FBD8FF
:10023000520728BF30C148BF0B6070471FB50DF093
:10024000BFFE1FBD10B510BD00F0B2F91146FFF79B
:10025000F5FF0CF0D1F900F0D0F903B4FFF7F2FF8D
:1002600003BC00F097F9000009488047094800479F
:10027000FEE7FEE7FEE7FEE7FEE7FEE7FEE7FEE756
:10028000FEE7FEE704480549054A064B70470000B3
:10029000718200088901000840360020403C00209F
:1002A000403800204038002053EA020C00F06980FA
:1002B0002DE9F04B4FF00006002B1FBFB3FA83F57A
:1002C00003FA05F424FA05F65E4012BF1643B2FAAB
:1002D00082F502FA05F4C5F120051EBF22FA05FCDD
:1002E00044EA0C04203556EA044C4FEA144418BF83
:1002F000641C4FF000084FF00009904271EB030CB2
:1003000039D3002919BFB1FA81F701FA07F6B0FA1B
:1003100080F700FA07F6C7F120071EBF20FA07FC96
:1003200046EA0C062037B6FBF4FCA7EB0507103FA6
:1003300007F01F0BCBF120062CFA06F60CFA0BFB8C
:1003400044BFB3460026202FA4BF5E464FF0000BEB
:100350005BEA060C08BF4FF0010B19EB0B0948EBE9
:100360000608ABFB027C06FB02CC0BFB03CCC01BDC
:1003700071EB0C01C1E70B46024641464846BDE819
:10038000F08B13B5084318BF4FF0FF300146AFF3B1
:100390000080BDE81C4070470EB5054614460E4669
:1003A00013A000F0E5F8284600F0E2F816A000F0EF
:1003B000DFF8304600F0DCF815A000F0D9F8002195
:1003C0008DF80B100A210DF10A008DF80A1008E0D3
:1003D00094FBF1F201FB124294FBF1F4303200F88D
:1003E000012D002CF4DC00F0C3F800F0B6F800009A
:1003F0002A2A2A20617373657274696F6E206661A0
:10040000696C65643A2000002C2066696C652000E8
:100410002C206C696E652000032A40F2308010F0B9
:10042000030C00F0158011F8013BBCF1020F62448F
:1004300098BF11F801CB00F8013B38BF11F8013B20
:10044000A2F1040298BF00F801CB38BF00F8013BCD
:1004500011F0030300F02580083AC0F0088051F83D
:10046000043B083A51F804CBA0E80810F5E7121D48
:100470005CBF51F8043B40F8043BAFF30080D20767
:1004800024BF11F8013B11F801CB48BF11F8012B33
:1004900024BF00F8013B00F801CB48BF00F8012B56
:1004A000704710B5203AC0F00B80B1E81850A0E8B2
:1004B0001850B1E81850A0E81850203ABFF4F5AF32
:1004C0005FEA027C24BFB1E81850A0E8185044BF8E
:1004D00018C918C0BDE810405FEA827C24BF51F8FB
:1004E000043B40F8043B08BF7047D20728BF31F8EF
:1004F000023B48BF11F8012B28BF20F8023B48BF40
:1005000000F8012B70474FF0000200B513469446E7
:100510009646203922BFA0E80C50A0E80C50B1F15B
:100520002001BFF4F7AF090728BFA0E80C5048BF6F
:100530000CC05DF804EB890028BF40F8042B08BF0D
:10054000704748BF20F8022B11F0804F18BF00F809
:10055000012B704770477047704710B5002000F0BE
:100560001FF8FFF76FFEBDE81040012000F012B841
:1005700010B5044602E0641C00F004F8207800285E
:10058000F9D110BD08B569468DF800000320ABBE57
:1005900008BD000001491820ABBEFEE7260002009E
:1005A00010B500F039F8BDE8104000F02FB87047E2
:1005B000754600F049F8AE4605006946534620F0FE
:1005C0000700854618B020B5FFF75CFEBDE8204067
:1005D0004FF000064FF000074FF000084FF0000BFF
:1005E000AC46ACE8C009ACE8C009ACE8C009ACE86E
:1005F000C00921F007018D46704710B50446AFF3DE
:1006000000802046BDE81040FFF727BE002801D03B
:10061000FFF7C0BF7047000010B5002102A000F036
:1006200017F8012010BD0000534947414252543A87
:100630002041626E6F726D616C207465726D696EBF
:100640006174696F6E00000000487047301600202A
:1006500070B505460C460A2000E06D1CFFF792FFBE
:1006600035B128780028F8D102E0641CFFF78AFF32
:1006700014B120780028F8D1BDE870400A20FFF7B7
:1006800081BF0000FFE7FEE780B540F60000C4F23E
:1006900002004FF4005101F095F980BD80B584B09F
:1006A000FFF7F2FF08B1FFE7E1E000208DF80B0053
:1006B00040F28000C2F200000DF10B0106F018F8C4
:1006C000ADF80E009DF80B00014600914A2800F29B
:1006D00067800099DFE801F06363646464646464C4
:1006E00064646464646464646464646464646464CA
:1006F00064646464646464636464646464646464BB
:1007000064646464646464646464646464646464A9
:10071000646464646464646463262F3838414A52B4
:100720005A63380040F28000C2F200004FF40051DA
:1007300004F036FE9BE040F28000C2F200004FF46D
:10074000804104F02DFE92E040F28000C2F20000F1
:100750004FF4805104F024FE89E040F28000C2F2A0
:1007600000004FF4805104F01BFE80E040F2800056
:10077000C2F20000042104F013FE78E040F2800091
:10078000C2F20000082104F00BFE70E040F280008D
:10079000C2F200004FF4004104F002FE67E0FFE700
:1007A00040F28000C2F2000003A905F0DFFFBDF8AF
:1007B0000C0000F48040012809DBFFE740F28000D4
:1007C000C2F200004FF4804104F0EAFDFFE7BDF8FB
:1007D0000C0000F40070012817DBFFE740F28000F6
:1007E000C2F200000DF10A01002205F049FF9DF858
:1007F0000A00012801D1FFE700E0FFE740F2800096
:10080000C2F2000004F07EFDFFE7BDF80C0000F42A
:10081000807001281ADBFFE70020ADF8080040F2E5
:100820008000C2F200000DF1070102AA05F06CFF82
:100830009DF80700022801D1FFE700E0FFE740F242
:100840008000C2F2000004F069FDFFE7BDF80C0073
:1008500000F40050012809DBFFE740F28000C2F2FB
:1008600000004FF4005104F09BFDFFE7FFE704B0E8
:1008700080BD000084B002900191029820B9FFE78A
:100880000020ADF80E0021E04FF6FF70ADF8020039
:10089000FFE70198411E019198B1FFE7BDF80210F2
:1008A0000298421C0292007880EA11224EF22A003D
:1008B000C0F6000030F8120080EA0120ADF8020016
:1008C000E7E7BDF80200ADF80E00FFE7BDF80E0047
:1008D00004B0704780B542F6E420C2F20000C06C5C
:1008E00000F0C8FB80BD000080B542F6E420C2F2F3
:1008F0000000806C00F0BEFB80BD000082B0019063
:100900000198007810384AF6AB21CAF6AA21A0FB5C
:1009100001100009009000994EF22A20C0F6000054
:10092000405C0199C8650098042807D3FFE7019946
:100930000868042262F30900886506E001990868E6
:1009400040F2FF3290438865FFE70198806D02B066
:100950007047000086B0059000208DF813000598C0
:10096000806A03900598806910BBFFE703980290A6
:1009700003281BD80299DFE801F0020D0218059840
:1009800090F82F00C00720B1FFE701208DF8130079
:10099000FFE70CE00598C06AB0F1C07F04D1FFE723
:1009A00001208DF81300FFE701E000E0FFE745E0DC
:1009B00005988069B0F5005F25D1FFE703980190A5
:1009C00003281ED80199DFE801F002060211012078
:1009D0008DF8130016E0059890F82F00C00720B19D
:1009E000FFE701208DF81300FFE70BE00598C06AD0
:1009F000B0F1C07F04D1FFE701208DF81300FFE7BD
:100A000000E0FFE719E003980090032804D3FFE714
:100A10000098032804D00EE001208DF813000BE0AD
:100A2000059890F82F00C00720B1FFE701208DF84E
:100A30001300FFE700E0FFE7FFE7FFE79DF8130083
:100A400006B0704784B0039002910192009303981E
:100A50000168086820F480200860009803990968FC
:100A6000486003988068402809D1FFE701980399FE
:100A700009688860029803990968C86008E00298CC
:100A8000039909688860019803990968C860FFE7BD
:100A900004B0704780B582B08DF8070000910BF06C
:100AA000E9FA002002B080BD7047000070470000E6
:100AB00080B5FFE740F20040C4F202004FF400416D
:100AC00000F098FF0BF01AF980B50DF0FDF980BD2C
:100AD00086B004900391049800680190049890F8FF
:100AE00020008DF803009DF80300012806D0FFE7E1
:100AF0009DF80300022840F0B080FFE746F2004076
:100B0000C4F2000001900199D1F8000240F0010008
:100B1000C1F800020199D1F8000220F47C50C1F81C
:100B200000020398426A0199D1F8000240EA0220CB
:100B3000C1F800020398406900F01F0101208840BD
:100B40000290029A0199D1F81C029043C1F81C024C
:100B50000398C069F0B9FFE7029A0199D1F80C0235
:100B60009043C1F80C02039A9088D168526940EA18
:100B70000140019901EBC201C1F84002039A1088BB
:100B80009168526940EA0140019901EBC201C1F844
:100B90004402FFE70398C06901281ED1FFE7029ACB
:100BA0000199D1F80C021043C1F80C02039A908805
:100BB0001168526940EA0140019901EBC201C1F894
:100BC0004002039A90899168526940EA0140019974
:100BD00001EBC201C1F84402FFE70398806940B904
:100BE000FFE7029A0199D1F804029043C1F8040288
:100BF00007E0029A0199D1F804021043C1F80402F7
:100C0000FFE70398006940B9FFE7029A0199D1F81C
:100C100014029043C1F8140207E0029A0199D1F836
:100C200014021043C1F81402FFE70398006A012878
:100C300008D1FFE7029A0199D1F81C021043C1F8CC
:100C40001C02FFE70199D1F8000220F00100C1F871
:100C5000000200208DF8170008E00499486A40F46B
:100C60008020486201208DF81700FFE79DF81700EB
:100C700006B0704780B584B00290029820B9FFE7B3
:100C800001208DF80F00E0E0029890F8200020B9D4
:100C9000FFE7029800F0DEF8FFE7029801680868B5
:100CA00040F00100086000F0D1FE0190FFE70298DB
:100CB00000684068C007A8B9FFE700F0C7FE0199C7
:100CC000401A0B280DD3FFE70299486A40F4003020
:100CD00048620299052081F8200001208DF80F005C
:100CE000B3E0E4E702980168086820F002000860B9
:100CF00000F0ACFE0190FFE70298006840688007B2
:100D0000002815D5FFE700F0A1FE0199401A0B2835
:100D10000DD3FFE70299486A40F400304862029917
:100D2000052081F8200001208DF80F008DE0E3E719
:100D30000298007E012807D1FFE702980168086841
:100D400040F08000086006E002980168086820F022
:100D500080000860FFE70298407E012807D1FFE786
:100D600002980168086840F04000086006E00298B8
:100D70000168086820F040000860FFE70298807E64
:100D8000012807D1FFE702980168086840F02000B9
:100D9000086006E002980168086820F020000860FA
:100DA000FFE70298C07E012807D1FFE7029801689B
:100DB000086820F01000086006E0029801680868E2
:100DC00040F010000860FFE70298007F012807D17B
:100DD000FFE702980168086840F00800086006E034
:100DE00002980168086820F008000860FFE7029890
:100DF000407F012807D1FFE702980168086840F0AA
:100E00000400086006E002980168086820F0040009
:100E10000860FFE7029B19685A689868D3F80CC00D
:100E200040EA0C00D3F810C040EA0C005B6918439C
:100E3000013A1043C861029900204862029A0121D8
:100E400082F820108DF80F00FFE79DF80F0004B026
:100E500080BD000081B0009001B0704780B584B0C3
:100E60000290029890F8200001282FD1FFE7029904
:100E7000022081F8200002980168086820F0010033
:100E8000086000F0E3FD0190FFE702980068406809
:100E9000C007A8B1FFE700F0D9FD0199401A0B285F
:100EA0000DD3FFE70299486A40F400304862029986
:100EB000052081F8200001208DF80F000FE0E4E705
:100EC0000299002048628DF80F0008E00299486AF4
:100ED00040F40020486201208DF80F00FFE79DF8E4
:100EE0000F0004B080BD000080B584B0029002986D
:100EF00090F82000022833D1FFE7029801680868C3
:100F000040F00100086000F0A1FD0190FFE70298A9
:100F100000684068C007A8B9FFE700F097FD019995
:100F2000401A0B280DD3FFE70299486A40F40030BD
:100F300048620299052081F8200001208DF80F00F9
:100F400017E0E4E702980168086820F002000860F2
:100F50000299012081F8200000208DF80F0008E0A0
:100F60000299486A40F48010486201208DF80F0011
:100F7000FFE79DF80F0004B080BD000082B0009034
:100F8000009890F83500022807D0FFE700998020EC
:100F9000486501208DF807000EE00099052081F8D2
:100FA000350000980168086820F001000860FFE73C
:100FB00000208DF80700FFE79DF8070002B070479A
:100FC00080B584B00290029820B9FFE701208DF827
:100FD0000F004BE0029890F83500022804D1FFE79B
:100FE00002208DF80F0041E002980168086820F0A7
:100FF00001000860029801680020009008600299D2
:101000000968486002990968886002990968C8609F
:1010100002990968086102980168212048610298D4
:10102000FFF76CFC0146009801910299C863029990
:10103000086402994864029988640299C864029914
:1010400008650299CA6D3F219140019A9160029909
:101050004865029981F83500FFE70299002081F880
:101060003400FFE700208DF80F00FFE79DF80F0028
:1010700004B080BD80B586B005900020039040F29A
:10108000B810C2F20000006848F2B511C1F64E3146
:10109000A0FB0110800A02900598806D01900198D4
:1010A0000068049004980599C96DC840000700289D
:1010B0001AD5FFE70598006800684007002812D598
:1010C000FFE705980168086820F0040008600598AB
:1010D000C16D08208840019988600599486D40F0ED
:1010E00001004865FFE7FFE704980599C96DC8400E
:1010F000C007A0B1FFE70598006840690006002816
:101100000CD5FFE70598C16D0120884001998860E2
:101110000599486D40F002004865FFE7FFE7049835
:101120000599C96DC8404007002814D5FFE7059808
:1011300000680068800700280CD5FFE70598C16D9E
:1011400004208840019988600599486D40F00400AA
:101150004865FFE7FFE704980599C96DC840C006D8
:10116000002847D5FFE705980068006800070028B9
:101170003FD5FFE70598C16D102088400199886030
:10118000059800680068400300281AD5FFE7059815
:10119000006800680003002809D4FFE70598006C88
:1011A00020B1FFE70598016C8847FFE708E0059844
:1011B000806C20B1FFE70598816C8847FFE7FFE767
:1011C00016E0059800680068C005002807D4FFE70E
:1011D00005980168086820F008000860FFE7059896
:1011E000006C20B1FFE70598016C8847FFE7FFE737
:1011F000FFE7FFE704980599C96DC84080060028FD
:1012000040F18D80FFE7059800680068C00600285F
:1012100040F18480FFE70598C16D20208840019946
:101220008860059890F83500052834D1FFE70598C7
:101230000168086820F01600086005980168486990
:1012400020F0800048610598006C20B9FFE7059800
:10125000806C38B1FFE705980168086820F0080045
:101260000860FFE70598C16D3F20884001998860BC
:101270000599012081F83500FFE70599002081F8E4
:101280003400FFE70598006D20B1FFE70598016D78
:101290008847FFE77BE00598006800684003002866
:1012A0001AD5FFE70598006800680003002809D4F4
:1012B000FFE70598406C20B1FFE70598416C88472F
:1012C000FFE708E00598C06B20B1FFE70598C16B08
:1012D0008847FFE7FFE720E0059800680068C00541
:1012E000002811D4FFE705980168086820F0100075
:1012F00008600599012081F83500FFE70599002075
:1013000081F83400FFE7FFE70598C06B20B1FFE7E5
:101310000598C16B8847FFE7FFE7FFE7FFE7059800
:10132000406DA0B3FFE70598406DC00730B3FFE7FD
:101330000599052081F8350005980168086820F0B6
:1013400001000860FFE7039801300390029988428A
:1013500001D9FFE707E0FFE7059800680068C007CC
:101360000028F0D1FFE70599012081F83500FFE75B
:101370000599002081F83400FFE7FFE70598C06C6D
:1013800020B1FFE70598C16C8847FFE7FFE706B08B
:1013900080BD000080B586B004900020039000F06E
:1013A00055FB0290049820B9FFE701208DF8170043
:1013B000A3E00498406A08B1FFE7FFE70499022020
:1013C00081F83500FFE70499002081F83400FFE739
:1013D00004980168086820F001000860FFE704989D
:1013E00000680068C00790B1FFE700F02FFB02998A
:1013F000401A06280AD3FFE704992020486504997B
:10140000032081F835008DF8170076E0E7E70498AF
:10141000006800680390039848F23F01CFF2100182
:1014200008400390049900914868D1F808C0CB683F
:101430000A6940EA0C00184310434A6910438A695C
:101440001043CA691043096A014303980843039093
:101450000498406A042808D1FFE70499C86A096B18
:101460000143039808430390FFE703980499096830
:1014700008600498006840690390039820F0070012
:1014800003900498416A0398084303900498406AC3
:1014900004281AD1FFE70498816A0398084303904F
:1014A0000498C06A80B1FFE70498FFF753FA50B17F
:1014B000FFE70499402048650499012081F8350030
:1014C0008DF8170019E0FFE7FFE703980499096812
:1014D00048610498FFF712FA01900498C16D3F200B
:1014E000884001998860049900204865049A012188
:1014F00082F835108DF81700FFE79DF8170006B049
:1015000080BD000080B588B00690059104920393D9
:1015100000208DF80B000698806D0190FFE706987B
:1015200090F83400012804D1FFE702208DF81F0055
:1015300045E00699012081F83400FFE7FFE70698AF
:1015400090F8350001282BD1FFE70699022081F899
:10155000350006990020486506980599049A039B72
:10156000FFF770FA0698C16D3F20884001998860A6
:1015700006980168086840F0160008600698006C3C
:1015800038B1FFE706980168086840F00800086075
:10159000FFE706980168086840F00100086009E06C
:1015A000FFE70699002081F83400FFE702208DF85C
:1015B0000B00FFE79DF80B008DF81F00FFE79DF87B
:1015C0001F0008B080BD000080B584B0039000F01B
:1015D0003DFA0290039801900198013048B1FFE76D
:1015E00041F22460C2F200000178019808440190A1
:1015F000FFE7FFE700F02AFA0299401A01998842B2
:1016000001D2FFE7F6E704B080BD00008EB00D9078
:101610000C9100200A90099008900B90FFE70B981E
:101620000F2800F2CC81FFE70B99012088400A9037
:101630000C9800680A990840099009980A9988420C
:1016400040F0B881FFE70C98406800F003000128E3
:1016500007D0FFE70C98406800F0030002282FD164
:10166000FFE70D98806808900B984100032000FA6E
:1016700001F10898884308900C98C0680B994900BC
:1016800000FA01F108980843089008980D998860BD
:101690000D98406808900B99012000FA01F1089814
:1016A000884308900C984068C0F300100B9900FA2A
:1016B00001F108980843089008980D994860FFE7E1
:1016C0000C98406800F00300032818D0FFE70D983D
:1016D000C06808900B984100032000FA01F10898B7
:1016E000884308900C9880680B99490000FA01F132
:1016F00008980843089008980D99C860FFE70C986F
:10170000406800F00300022826D1FFE70D980B99EE
:101710006FF0030202EA51010844006A08900B9836
:1017200000F0070081000F2000FA01F108988843BB
:1017300008900C9800690B9901F00701890000FAE4
:1017400001F108980843089008980D990B9B02EA4C
:10175000530211440862FFE70D98006808900B9847
:101760004100032000FA01F10898884308900C9882
:10177000406800F003000B99490000FA01F1089855
:101780000843089008980D9908600C9880798007A4
:10179000002800F00E81FFE7FFE70020079043F6E6
:1017A0004400C4F20200016841F480410160006815
:1017B00000F4804007900798FFE70B9820F00300A3
:1017C00043F60801C4F20101405808900B9800F05C
:1017D000030081000F2000FA01F108988843089067
:1017E0000D980021C4F20201884203D1FFE70020D6
:1017F00006905EE00D9840F20041C4F2020188427A
:1018000003D1FFE70120059050E00D9840F600015C
:10181000C4F20201884203D1FFE70220049042E0B3
:101820000D9840F60041C4F20201884203D1FFE75F
:101830000320039034E00D9841F20001C4F202014C
:10184000884203D1FFE70420029026E00D9841F280
:101850000041C4F20201884203D1FFE70520019054
:1018600018E00D9841F60001C4F20201884203D14C
:10187000FFE7062000900AE00D9941F60042C4F20D
:1018800002020820914208BF07200090FFE700985D
:101890000190FFE701980290FFE702980390FFE7AD
:1018A00003980490FFE704980590FFE705980690D9
:1018B000FFE70698C0B20B9901F00301890000FA16
:1018C00001F108980843089008980B9921F003014A
:1018D00043F60802C4F20102885043F60840C4F2FD
:1018E00001000068089009990898884308900C98AE
:1018F0008079C006002805D5FFE7099908980843B4
:101900000890FFE7089843F60841C4F20101086017
:1019100043F60C40C4F20100006808900999089849
:10192000884308900C9880798006002805D5FFE749
:101930000999089808430890FFE7089843F60C4176
:10194000C4F20101086043F60440C4F201000068DB
:10195000089009990898884308900C988079800726
:10196000002805D5FFE70999089808430890FFE784
:10197000089843F60441C4F20101086043F60040B0
:10198000C4F20100006808900999089888430890FB
:101990000C988079C00728B1FFE709990898084397
:1019A0000890FFE7089843F60041C4F2010108607F
:1019B000FFE7FFE7FFE70B9801300B902FE60EB033
:1019C0007047000082B00190ADF8021001980069E4
:1019D000BDF80210084204D0FFE701208DF8010095
:1019E00003E000208DF80100FFE79DF8010002B040
:1019F0007047000083B00290ADF80610029840696D
:101A00000090009ABDF8060002EA0001904340EA07
:101A100001400299886103B07047000082B00190D4
:101A2000ADF802108DF801209DF8010028B1FFE704
:101A3000BDF802000199886105E0BDF802000004CC
:101A400001998861FFE702B07047000043F23860F7
:101A5000C2F200000068704741F22460C2F2000048
:101A6000027843F23861C2F200010868104408604D
:101A70007047000080B543F60041C4F202010868D7
:101A800040F400700860086840F4806008600868EE
:101A900040F480700860032000F08AF80F2000F006
:101AA00005F800F03BF8002080BD000080B582B052
:101AB000009040F2B810C2F20000006841F22461C8
:101AC000C2F200010A784FF47A71B1FBF2F1B0FB77
:101AD000F1F002F009FC20B1FFE701208DF80700CA
:101AE00018E000980F280DD8FFE700994FF0FF305D
:101AF000002200F043F8009841F22861C2F2000190
:101B0000086003E001208DF8070003E000208DF855
:101B10000700FFE79DF8070002B080BD82B0FFE735
:101B20000020019043F64400C4F20200016841F431
:101B300080410160006800F4804001900198FFE757
:101B4000FFE70020009043F64000C4F20200016865
:101B500041F080510160006800F0805000900098D2
:101B6000FFE702B07047000080B582B08DF8070033
:101B70009DF907000AF062F802B080BD80B586B01A
:101B80008DF8170004910392002002900AF06EF87D
:101B900002909DF91700019002980499039A05F0AC
:101BA00081FE014601980AF069F806B080BD000088
:101BB00080B582B0019001980AF082F802B080BD31
:101BC00082B001908DF8031002B0704782B001908E
:101BD000ADF80210BDF802000199096848620020C2
:101BE00002B0704784B003908DF80B10ADF8082058
:101BF00003980068406A00909DF80B0048B9FFE721
:101C0000BDF80810009840EA01400399096888620D
:101C100033E003980068816A009800EB114000905F
:101C200000208DF80700FFE79DF807009DF80B10D6
:101C30000139884213D2FFE7039800689DF8071026
:101C400000EB8100D0F80411009800EB11400090E7
:101C5000FFE79DF8070001308DF80700E4E7BDF8C5
:101C60000810009840EA0140039909689DF80B208C
:101C700001EB8201C1F80001FFE7002004B07047CA
:101C800080B582B001900198D0F8080507F0C2F83D
:101C900002B080BD80B582B001908DF80310019A2A
:101CA000D2F808059DF8031001EBC10302EB830293
:101CB000D26C06F00BFF02B080BD000080B582B090
:101CC00001908DF80310019AD2F808059DF80310D1
:101CD00001EBC10302EB8302D2F88C2206F0C0FFB5
:101CE00002B080BD80B582B001900198D0F808059F
:101CF00007F096F802B080BD80B584B003908DF8EF
:101D00000B109DF80B00000600280CD5FFE7039888
:101D10009DF80B1001F00F0101EBC10100EB8100F8
:101D20003C3001900CE003989DF80B1001F00F017E
:101D300001EBC10100EB810000F51F700190FFE78E
:101D400003980068019908F00FFF8DF80A009DF8CC
:101D50000A0004B080BD000080B584B002908DF808
:101D600007109DF80700000600280FD5FFE702982E
:101D70009DF8071001F00F0101EBC10100EB81009C
:101D80003C3000900099012048700FE002989DF8C7
:101D9000071001F00F0101EBC10100EB810000F51C
:101DA0001F700090009900204870FFE79DF8070021
:101DB00000F00F0000990870FFE7029890F8BC044B
:101DC000012804D1FFE702208DF80F0014E00299EA
:101DD000012081F8BC04FFE7FFE702980068009942
:101DE00008F0EAF8FFE70299002081F8BC04FFE759
:101DF00000208DF80F00FFE79DF80F0004B080BDB4
:101E000080B584B002908DF807109DF8070000F0AF
:101E10000F0002994968884204D9FFE701208DF834
:101E20000F004DE09DF80700000600280FD5FFE7E2
:101E300002989DF8071001F00F0101EBC10100EBC2
:101E400081003C3000900099012048700FE002981A
:101E50009DF8071001F00F0101EBC10100EB8100BB
:101E600000F51F700090009900204870FFE700996E
:101E7000002088709DF8070000F00F00009908709E
:101E8000FFE7029890F8BC04012804D1FFE7022084
:101E90008DF80F0014E00299012081F8BC04FFE7DF
:101EA000FFE702980068009908F006FCFFE7029936
:101EB000002081F8BC04FFE700208DF80F00FFE749
:101EC0009DF80F0004B080BD80B584B002908DF8FD
:101ED0000710FFE7029890F8BC04012804D1FFE73F
:101EE00002208DF80F0023E00299012081F8BC0444
:101EF000FFE7FFE79DF807000006002809D5FFE788
:101F0000029800689DF8071001F00F0108F004FF27
:101F100004E00298006808F0BFFEFFE7FFE70299BF
:101F2000002081F8BC04FFE700208DF80F00FFE7D8
:101F30009DF80F0004B080BD82B001908DF80310B1
:101F400001989DF8031001F00F0101EBC10100EBB6
:101F50008100D0F89C0202B07047000080B586B0C6
:101F600004908DF80F10ADF80C208DF80B30002088
:101F70008DF80A009DF80F00000600280FD5FFE736
:101F800004989DF80F1001F00F0101EBC10100EB67
:101F900081003C3001900199012048700FE00498C5
:101FA0009DF80F1001F00F0101EBC10100EB810062
:101FB00000F51F700190019900204870FFE79DF81F
:101FC0000F0000F00F0001990870BDF80C00019996
:101FD000C8609DF80B00019908710198407820B104
:101FE000FFE7019908780881FFE79DF80B000228B8
:101FF00004D1FFE7019900204871FFE7FFE704984B
:1020000090F8BC04012804D1FFE702208DF81700E6
:1020100015E00499012081F8BC04FFE7FFE704986C
:102020000068019907F082FEFFE70499002081F81B
:10203000BC04FFE79DF80A008DF81700FFE79DF844
:10204000170006B080BD000080B586B005908DF801
:1020500013100392029305989DF8131001F00F01DD
:1020600001EBC10100EB810000F51F7001900398A6
:10207000019908610298019988610199002008621C
:10208000019948709DF8130000F00F000199087045
:1020900005980069012804D1FFE703980199486178
:1020A000FFE79DF81300000738B9FFE7059A1068AD
:1020B0000199127C08F0B4F906E0059A10680199BC
:1020C000127C08F09DFBFFE7002006B080BD0000F9
:1020D00080B584B002908DF807109DF8070000F0DD
:1020E0000F0002994968884204D9FFE701208DF862
:1020F0000F0058E09DF80700000600280FD5FFE705
:1021000002989DF8071001F00F0101EBC10100EBEF
:1021100081003C3000900099012048700DE0029849
:102120009DF8071001EBC10100EB810000F51F7065
:102130000090009900204870FFE700990120887006
:102140009DF8070000F00F0000990870FFE7029863
:1021500090F8BC04012804D1FFE702208DF80F009D
:1021600021E00299012081F8BC04FFE7FFE7029813
:102170000068009908F0F0FA9DF80700000740B9E0
:10218000FFE7029A1068117C02F2C44208F044FA98
:10219000FFE7FFE70299002081F8BC04FFE7002079
:1021A0008DF80F00FFE79DF80F0004B080BD000020
:1021B00080B586B005908DF81310039202930598B0
:1021C0009DF8131001F00F0101EBC10100EB81003C
:1021D0003C30019003980199086102980199886147
:1021E0000199002008620199012048709DF81300B0
:1021F00000F00F000199087005980069012804D1CA
:10220000FFE7039801994861FFE79DF81300000775
:1022100038B9FFE7059A10680199127C08F000F9B7
:1022200006E0059A10680199127C08F0E9FAFFE7C8
:10223000002006B080BD000080B58CB00B900B98DC
:1022400000680A900A9809900B98006808F0CEFD83
:10225000002840F00584FFE70998D0F80808C0F38B
:102260000D200B99C1F8FC040B98006808F02AFEB9
:102270008007002807D5FFE70B980168486900F040
:1022800002004861FFE70B98006808F01BFEC006DB
:10229000002862D5FFE70B980168886920F01000DC
:1022A00088610A98006A02900B98029901F00F0168
:1022B00001EBC10100EB810000F51F70089002984E
:1022C00000F4F0110220B0EB514F23D1FFE7BDF82D
:1022D000080047F6F07108421BD0FFE70A980899FA
:1022E0000969029AC2F30A1208F0FAFD029847F649
:1022F000F07100EA0103089A106900EB13101061F5
:10230000029800EA01020899086A00EB12100862BC
:10231000FFE71BE0029800F4F0110620B0EB514FEC
:1023200012D1FFE70A980B9901F2C441082208F084
:10233000D7FD029847F6F07100EA01020899086A91
:1023400000EB1210086200E0FFE7FFE70B9801685E
:10235000886940F010008861FFE70B98006808F07A
:10236000B1FD0003002840F1A680FFE700200490A3
:102370000B98006808F054FD0690FFE706980028C7
:1023800000F09880FFE79DF81800C007002800F0D3
:102390008A80FFE70B9800689DF8101008F07AFD1E
:1023A00005909DF81400C00760B1FFE709980499F3
:1023B00000EB41110120C1F8080B0B98049905F0BE
:1023C000F5FAFFE79DF81400000700280CD5FFE799
:1023D0000998049900EB41110820C1F8080B0B98EB
:1023E000049905F09DFAFFE79DF81400C006002847
:1023F00008D5FFE70998049900EB41111020C1F8B6
:10240000080BFFE79DF81400800700282DD5FFE793
:102410000A9840690006002808D5FFE70999D1F815
:10242000040840F48060C1F80408FFE70B980499A1
:1024300001EBC10100EB810000F51F7008900898C6
:10244000C078012809D1FFE708990020C8700B98CF
:102450009DF8101000F014FBFFE70998049900EBB9
:1024600041110220C1F8080BFFE79DF81400800617
:10247000002808D5FFE70998049900EB41112020B6
:10248000C1F8080BFFE79DF815008006002809D564
:10249000FFE70998049900EB41114FF40050C1F88F
:1024A000080BFFE7FFE70498013004900698400806
:1024B000069063E7FFE70B98006808F003FD400310
:1024C000002840F1C680FFE70B98006808F096FCF2
:1024D000069000200490FFE70698002800F0B880DE
:1024E000FFE79DF81800C007002800F0AA80FFE76A
:1024F0000B9800689DF8101008F0A4FC05909DF85A
:102500001400C00700283ED0FFE7049800F00F0138
:10251000012000FA01F10391039B099AD2F83418C3
:102520009943C2F834180999049A01EB4211C1F891
:1025300008090B98006901281FD1FFE70B9804993F
:1025400001EBC10100EB81018A6CC86C1044C864C6
:10255000049888B9FFE70B98049901EBC10100EBDF
:102560008100406D40B9FFE70B99086801F2C44251
:10257000012108F051F8FFE7FFE70B989DF81010D4
:10258000FFF788FBFFE79DF814000007002808D537
:10259000FFE70998049900EB41110820C1F80809E8
:1025A000FFE79DF81400C006002808D5FFE709984A
:1025B000049900EB41111020C1F80809FFE79DF8CC
:1025C00014004006002808D5FFE70998049900EB9D
:1025D00041114020C1F80809FFE79DF81400800769
:1025E000002822D5FFE70A98049908F095FB0B987C
:1025F000049901EBC10100EB81003C300890089880
:10260000C078012809D1FFE708990020C8700B980D
:102610009DF8101000F026FAFFE70998049900EBE6
:1026200041110220C1F80809FFE79DF814000006D7
:10263000002805D5FFE70B98049905F09BFAFFE702
:10264000FFE704980130049006984008069043E79D
:10265000FFE70B98006808F035FCC00F00B3FFE7F8
:102660000999D1F8040820F00100C1F804080B987A
:1026700090F8F404012808D1FFE70B98002180F8B6
:10268000F4140B98FFF79CFA03E00B9800F034FC6D
:10269000FFE70B980168486900F000404861FFE7D8
:1026A0000B98006808F00EFC0005002811D5FFE724
:1026B0000998D0F80808C00720B1FFE70B9800F090
:1026C000EBFCFFE70B980168486900F40060486183
:1026D000FFE70B98006808F0F5FBC004002840F104
:1026E0008680FFE70999D1F8040820F00100C1F8BD
:1026F00004080B980068102108F00EFB00200790DA
:10270000FFE707980B994968884231D2FFE709989B
:10271000079900EB41114FF67F30C1F8080909997C
:10272000079A01EB4212D2F8001921F40011C2F805
:1027300000190999079A01EB4211C1F8080B099891
:10274000079900EB4111D1F8000B20F40010C1F8FB
:10275000000B0998079900EB4111D1F8000B40F0EC
:102760000060C1F8000BFFE7079801300790C8E749
:102770000999D1F81C0840F00110C1F81C080B9809
:10278000006B78B1FFE70999D1F8840840F00B009D
:10279000C1F884080999D1F8440840F00B00C1F849
:1027A00044080FE00999D1F8140842F22B021043B3
:1027B000C1F814080999D1F8100840F00B00C1F8CD
:1027C0001008FFE70999D1F8000820F4FE60C1F86D
:1027D00000080B9A1068117C02F2C44207F01CFF3B
:1027E0000B980168486900F480504861FFE70B9836
:1027F000006808F067FB800400281FD5FFE70B98EE
:10280000006807F003FB0B98006808F0C9FA0B9901
:10281000C8600B980068019000F090FD0146019897
:102820000B9A127B08F054FC0B9800F03BFB0B98C2
:102830000168486900F400504861FFE70B980068A0
:1028400008F040FB000700280AD5FFE70B9800F0CE
:102850005DFB0B980168486900F008004861FFE7DC
:102860000B98006808F02EFB0006002825D5FFE72E
:102870000A99886920F08000886101200490FFE7B0
:1028800004980B994968884216D2FFE70B9804997F
:1028900001EBC10100EB810090F87F02012806D115
:1028A000FFE70B989DF81010FFF726FAFFE7FFE708
:1028B000049801300490E3E7FFE70B98006808F004
:1028C00001FBC00200283ED5FFE701200490FFE78E
:1028D00004980B99496888422ED2FFE70998049919
:1028E00000EB4110D0F8000902900B98049901EB1D
:1028F000C10100EB810090F84000012817D1FFE7EB
:102900009DF80B000006002811D5FFE70B980499ED
:1029100001EBC10100EB8101012081F83F000B9820
:102920009DF8101041F08001FFF7E6F9FFE7FFE79F
:10293000049801300490CBE70B980168486900F4D3
:1029400080104861FFE70B98006808F0BBFA80022E
:10295000002855D5FFE701200490FFE704980B9964
:102960004968884245D2FFE70998049900EB411075
:10297000D0F8000B02900B98049901EBC10100EB19
:10298000810090F8800201282ED1FFE79DF80B000E
:102990000006002828D5FFE7029800F480300B9944
:1029A000D1F8FC1401F0010188421DD1FFE70B981A
:1029B000049901EBC10100EB8101012081F87F0244
:1029C0000A99886940F0800088610A984069000689
:1029D000002808D4FFE70999D1F8040840F40070F2
:1029E000C1F8040805E0FFE7FFE704980130049010
:1029F000B4E70B980168486900F400104861FFE7EC
:102A00000B98006808F05EFA400000280AD5FFE73E
:102A10000B98FFF735F90B980168486900F0804082
:102A20004861FFE70B98006808F04CFA400700285F
:102A300015D5FFE70B980068406802909DF80800E4
:102A40004007002804D5FFE70B98FFF74BF9FFE795
:102A5000029A0B980168486810434860FFE7FFE757
:102A60000CB080BD80B582B001908DF80310019844
:102A7000D0F808059DF8031006F09AFA02B080BD60
:102A800080B582B001908DF803100198D0F8080548
:102A90009DF8031006F0C4FA02B080BD2DE9F04F96
:102AA00097B01590159820B9FFE701208DF85B00CD
:102AB00049E1159800681490159890F8BD0440B944
:102AC000FFE71599002081F8BC04159800F040F943
:102AD000FFE71599032081F8BD041498C06BC00569
:102AE000002804D4FFE7159900200861FFE7159836
:102AF000006807F08BFC15981090016811914168EF
:102B00008268C368D0F810C044698569C669076ADD
:102B1000D0F82480D0F82890D0F82CA0D0F830B08D
:102B2000D0F834E068461290C0F824E01198DDF83F
:102B300048E0CEF820B0CEF81CA0CEF81890CEF821
:102B40001480CEF81070CEF80C60CEF80850CEF895
:102B50000440CEF800C007F06FF940B1FFE71599C7
:102B6000022081F8BD0401208DF85B00EBE0159890
:102B7000006800210F9108F00DFA0F988DF84F00B2
:102B8000FFE79DF84F0015994968884245D2FFE755
:102B900015989DF84F1001EBC10100EB8101012058
:102BA00081F83D009DF84F00159900EBC00201EB44
:102BB000820181F83C009DF84F00159900EBC0029E
:102BC00001EB8201A1F8440015989DF84F1001EB2C
:102BD000C10100EB8101002081F8400015999DF8AA
:102BE0004F2002EBC20201EB8201886415999DF827
:102BF0004F2002EBC20201EB8201C86415999DF8D7
:102C00004F2002EBC20201EB82014865FFE79DF80D
:102C10004F0001308DF84F00B3E700208DF84F00D2
:102C2000FFE79DF84F001599496888423ED2FFE7BB
:102C300015989DF84F1001EBC10100EB81010020B8
:102C400081F87D029DF84F10159A01EBC10302EB4C
:102C5000830282F87C1215999DF84F2002EBC20284
:102C600001EB820181F8800215999DF84F2002EB5B
:102C7000C20201EB8201C1F8880215999DF84F202C
:102C800002EBC20201EB8201C1F88C0215999DF89A
:102C90004F2002EBC20201EB8201C1F89402FFE770
:102CA0009DF84F0001308DF84F00BAE715980C9051
:102CB00001680D9141688268C368D0F810C044690A
:102CC0008569C669076AD0F82480D0F82890D0F8C2
:102CD0002CA0D0F830B0D0F834E068460E90C0F8A0
:102CE00024E00D98DDF838E0CEF820B0CEF81CA036
:102CF000CEF81890CEF81480CEF81070CEF80C6094
:102D0000CEF80850CEF80440CEF800C007F01CFA08
:102D100040B1FFE71599022081F8BD0401208DF82C
:102D20005B0010E0159900200B9081F83800159990
:102D3000012081F8BD041598006807F0EFF90B98A1
:102D40008DF85B00FFE79DF85B0017B0BDE8F08FE2
:102D500080B590B00F9000200E900D900C900B90CD
:102D60000A900F9800680021C4F20401884240F0E4
:102D70009680FFE7FFE70020099043F63000C4F299
:102D80000200016841F004010160006800F00400E5
:102D900009900998FFE7FFE70020089043F630000C
:102DA000C4F20200016841F001010160006800F016
:102DB000010008900898FFE7FFE70020079043F61E
:102DC0003000C4F20200016841F0020101600068B5
:102DD00000F0020007900798FFE70D200A900220FC
:102DE00000900B90002001900C90032002900D9019
:102DF0000A2003900E9040F60000C4F202000AA9D7
:102E00000491FEF703FCDDF800C0019B029A0398D1
:102E100004994FF0280ECDF828E0CDF82CC00C9383
:102E20000D920E900020C4F20200FEF7EFFBDDF8D9
:102E300000C0019B029A0398049943F6234ECDF8F3
:102E400028E0CDF82CC00C930D920E9040F200407B
:102E5000C4F20200FEF7DAFBFFE70020069043F61B
:102E60003000C4F20200016841F0005101600068C6
:102E700000F0005006900698FFE7FFE7002005905D
:102E800043F63000C4F20200016841F08041016065
:102E9000006800F0804005900598FFE7FFE710B05C
:102EA00080BD000080B582B0019001208DF8030044
:102EB0000198C06820B9FFE700208DF803000CE0FE
:102EC0000198C068022804D1FFE701208DF80300B3
:102ED00002E0FDF7EDFDFFE7FFE70198D0F80805F8
:102EE0009DF8031006F09CF90198D0F8080506F04B
:102EF00017F902B080BD000080B582B00190019842
:102F0000D0F8080506F05AF902B080BD80B582B04D
:102F100001900198D0F8080506F062F902B080BD72
:102F200080B584B002908DF80710FFE7029890F802
:102F3000BC04012804D1FFE702208DF80F001AE03D
:102F40000299012081F8BC04FFE7FFE79DF8070024
:102F5000029981F83800029800689DF8071008F07F
:102F600089F8FFE70299002081F8BC04FFE7002000
:102F70008DF80F00FFE79DF80F0004B080BD000042
:102F800080B582B001900199D1F8080501F2C441E1
:102F900006F070F902B080BD80B584B0029002984E
:102FA00000680190FFE7029890F8BC04012804D162
:102FB000FFE702208DF80F0027E00299012081F839
:102FC000BC04FFE7FFE70298806A01280BD1FFE706
:102FD00002988069012806D0FFE70199886B40F4C8
:102FE00080308863FFE70298006807F04BFE029884
:102FF000006807F07DF8FFE70299002081F8BC0423
:10300000FFE700208DF80F00FFE79DF80F0004B0E8
:1030100080BD000080B584B00290029800680190E5
:10302000FFE7029890F8BC04012804D1FFE70220D2
:103030008DF80F002CE00299012081F8BC04FFE715
:10304000FFE70298006807F0E1F90298006807F0CE
:1030500065F802980068102107F05EFE0298806A09
:1030600001280BD1FFE702988069012806D0FFE70D
:103070000199886B20F480308863FFE7FFE70299AD
:10308000002081F8BC04FFE700208DF80F00FFE767
:103090009DF80F0004B080BD80B582B0019001980A
:1030A000D0F8080506F080F901980168D1F8000E03
:1030B00040F00100C1F8000E0198006A48B1FFE736
:1030C0004EF61051CEF20001086840F0060008608C
:1030D000FFE702B080BD000080B584B0029001918E
:1030E000029820B9FFE701208DF80F0021E1019837
:1030F00043F60041C4F20201096801F00701884269
:1031000012D9FFE7019943F60040C4F202000170B2
:10311000006800F007000199884204D0FFE7012011
:103120008DF80F0005E1FFE702980078800700287E
:103130002AD5FFE7029800784007002809D5FFE765
:1031400043F60801C4F20201086840F4E050086048
:10315000FFE7029800780007002809D5FFE743F64B
:103160000801C4F20201086840F460400860FFE70B
:1031700043F60801C4F20201086820F0F000029A48
:10318000926810430860FFE702980078C0070028A3
:103190006ED0FFE702984068012811D1FFE743F69F
:1031A0000000C4F20200006800F400310020B0EB1F
:1031B000514F04D1FFE701208DF80F00B9E02CE05A
:1031C00002984068022805D0FFE70298406803286B
:1031D00011D1FFE743F60000C4F20200006800F0DE
:1031E00000710020B0EB516F04D1FFE701208DF892
:1031F0000F009EE010E043F60000C4F202000068F9
:1032000000F002010020B0EB510F04D1FFE70120D4
:103210008DF80F008DE0FFE7FFE743F60801C4F2E9
:103220000201086820F00300029A52681043086007
:10323000FEF70CFC0090FFE743F60800C4F2020022
:10324000006800F00C0002994968B0EB810F0ED0C5
:10325000FFE7FEF7FBFB0099401A41F289318842F3
:1032600004D3FFE703208DF80F0062E0E4E7FFE7F7
:10327000019843F60041C4F20201096801F0070118
:10328000884212D2FFE7019943F60040C4F20200DF
:103290000170006800F007000199884204D0FFE740
:1032A00001208DF80F0044E0FFE702980078400706
:1032B00000280CD5FFE743F60801C4F202010868B4
:1032C00020F4E050029AD26810430860FFE70298A9
:1032D0000078000700280DD5FFE743F60801C4F287
:1032E0000201086820F46040029A126940EAC200B4
:1032F0000860FFE700F028F843F60801C4F2020175
:103300000968C9B20A094EF21A01C0F60001895CC7
:10331000C84040F2B811C2F20001086041F22860D2
:10332000C2F200000068FEF7C1FB00208DF80F001C
:10333000FFE79DF80F0004B080BD000040F2B81018
:10334000C2F200000068704780B586B0002005908A
:1033500004900390029043F60800C4F20200006853
:1033600000F00C000146019140B1FFE701980428EC
:103370000AD0FFE7019808280CD04FE042F2004045
:10338000C0F2F40002904FE043F20060C0F26E1011
:10339000029049E043F60400C4F20200016801F023
:1033A0003F01059100684002002813D5FFE743F66E
:1033B0000400C4F202000068C0F3881043F2006108
:1033C000C0F26E11A0FB0101059A0023FCF76CFF0F
:1033D000049012E043F60400C4F202000068C0F357
:1033E000881042F20041C0F2F401A0FB0101059AED
:1033F0000023FCF759FF0490FFE743F60400C4F2F2
:103400000200006800F44031022000EBD13003904C
:1034100004980399B0FBF1F0029005E042F20040FD
:10342000C0F2F4000290FFE7029806B080BD0000F1
:1034300080B586B00490049820B9FFE701208DF88C
:10344000170050E304980078C007002800F0A5801A
:10345000FFE743F60800C4F20200006800F00C0029
:10346000042813D0FFE743F60800C4F20200006806
:1034700000F00C0008281ED1FFE743F60400C4F258
:10348000020000684002002815D5FFE743F600005F
:10349000C4F20200006800F400310020B0EB514F8C
:1034A00008D0FFE70498406820B9FFE701208DF8B5
:1034B000170018E370E0FFE704984068B0F5803F1C
:1034C00009D1FFE743F60001C4F20201086840F4A5
:1034D0008030086020E004984068B0F5A02F0DD13E
:1034E000FFE743F60001C4F20201086840F48020BF
:1034F0000860086840F4803008600CE043F6000182
:10350000C4F20201086820F480300860086820F4E2
:1035100080200860FFE7FFE7FFE704984068E8B114
:10352000FFE7FEF793FA0390FFE743F60000C4F2CB
:103530000200006800F400310020B0EB514F0CD1C4
:10354000FFE7FEF783FA0399401A652804D3FFE7E3
:1035500003208DF81700C6E2E7E71CE0FEF776FAD5
:103560000390FFE743F60000C4F20200006800F495
:1035700000310020B0EB514F0CD0FFE7FEF766FAA8
:103580000399401A652804D3FFE703208DF817003C
:10359000A9E2E7E7FFE7FFE7FFE704980078800785
:1035A000002840F19680FFE743F60800C4F20200CD
:1035B000006810F00C0F13D0FFE743F60800C4F2C8
:1035C0000200006800F00C0008282CD1FFE743F649
:1035D0000400C4F2020000684002002823D4FFE780
:1035E00043F60000C4F20200006800F0020100206F
:1035F000B0EB510F09D0FFE70498C068012804D050
:10360000FFE701208DF817006DE243F60001C4F2D8
:103610000201086820F0F800049A126940EAC2002A
:103620000860FFE754E00498C06870B3FFE700212A
:10363000C4F2472101200860FEF708FA0390FFE773
:1036400043F60000C4F20200006800F0020100200E
:10365000B0EB510F0CD1FFE7FEF7F8F90399401AD0
:10366000032804D3FFE703208DF817003BE2E7E7C8
:1036700043F60001C4F20201086820F0F800049A41
:10368000126940EAC200086021E00021C4F247212B
:1036900000200860FEF7DAF90390FFE743F6000028
:1036A000C4F20200006800F002010020B0EB510FEC
:1036B0000CD0FFE7FEF7CAF90399401A032804D398
:1036C000FFE703208DF817000DE2E7E7FFE7FFE7CC
:1036D000FFE704980078000700284BD5FFE704981F
:1036E000406918B3FFE740F68061C4F2472101202A
:1036F0000860FEF7ABF90390FFE743F67400C4F2ED
:103700000200006800F002010020B0EB510F0CD164
:10371000FFE7FEF79BF90399401A032804D3FFE75C
:1037200003208DF81700DEE1E7E722E040F6806134
:10373000C4F2472100200860FEF788F90390FFE7F4
:1037400043F67400C4F20200006800F00201002099
:10375000B0EB510F0CD0FFE7FEF778F90399401A50
:10376000032804D3FFE703208DF81700BBE1E7E748
:10377000FFE7FFE7049800784007002840F1CE807B
:10378000FFE700208DF8070043F64000C4F2020076
:103790000068C000002815D4FFE7FFE70020009074
:1037A00043F64000C4F20200016841F0805101601C
:1037B000006800F0805000900098FFE701208DF82D
:1037C0000700FFE747F20000C4F200000068C005F0
:1037D000002822D4FFE747F20001C4F20001086884
:1037E00040F480700860FEF731F90390FFE747F27C
:1037F0000000C4F200000068C00500280CD4FFE7F8
:10380000FEF724F90399401A032804D3FFE70320A5
:103810008DF8170067E1EAE7FFE7FFE704988068A3
:10382000012809D1FFE743F67001C4F202010868DC
:1038300040F0010008601FE00498806805280DD161
:10384000FFE743F67001C4F20201086840F004008B
:103850000860086840F0010008600CE043F6700161
:10386000C4F20201086820F001000860086820F036
:1038700004000860FFE7FFE7FFE704988068F8B1FD
:10388000FFE7FEF7E3F80390FFE743F67000C4F2AA
:103890000200006800F002010020B0EB510F0ED1D1
:1038A000FFE7FEF7D3F80399401A41F289318842C5
:1038B00004D3FFE703208DF8170014E1E5E71EE0CD
:1038C000FEF7C4F80390FFE743F67000C4F202006D
:1038D000006800F002010020B0EB510F0ED0FFE7AE
:1038E000FEF7B4F80399401A41F28931884204D3B3
:1038F000FFE703208DF81700F5E0E5E7FFE79DF807
:103900000700012809D1FFE743F64001C4F2020194
:10391000086820F080500860FFE7FFE7049880699E
:10392000002800F0DC80FFE743F60800C4F2020044
:10393000006800F00C00082800F08580FFE704987C
:10394000806902285CD1FFE76021C4F24721002092
:103950000860FEF77BF80390FFE743F60000C4F22F
:103960000200006800F000710020B0EB516F0CD035
:10397000FFE7FEF76BF80399401A032804D3FFE72B
:1039800003208DF81700AEE0E7E70499C869D1F885
:1039900020C04B6A8A6A40EA0C0040EA8310D203D6
:1039A0004FF6FF739A43A2F580321043C96A40EA8A
:1039B000016043F60401C4F2020108606021C4F210
:1039C000472101200860FEF741F80390FFE743F626
:1039D0000000C4F20200006800F000710020B0EBAB
:1039E000516F0CD1FFE7FEF731F80399401A032815
:1039F00004D3FFE703208DF8170074E0E7E721E028
:103A00006021C4F2472100200860FEF71FF80390F0
:103A1000FFE743F60000C4F20200006800F0007106
:103A20000020B0EB516F0CD0FFE7FEF70FF80399C1
:103A3000401A032804D3FFE703208DF8170052E053
:103A4000E7E7FFE74AE004988069012804D1FFE72F
:103A500001208DF8170046E043F60400C4F202008E
:103A60000068029004988069012831D0FFE702982D
:103A700000F480000499C969884229D1FFE70298BF
:103A800000F03F000499096A884221D1FFE70298BB
:103A900047F6C07108400499496AB0EB811F17D1FD
:103AA000FFE7029800F440300499896AC9034FF691
:103AB000FF729143A1F58031884209D1FFE7029856
:103AC00000F070600499C96AB0EB016F04D0FFE7A1
:103AD00001208DF8170006E0FFE7FFE7FFE7002071
:103AE0008DF81700FFE79DF8170006B080BD0000B5
:103AF00080B582B00090009820B9FFE701208DF8D2
:103B000007001CE00099022081F85100009801682C
:103B1000086820F040000860009800F0B7F90099AC
:103B200000204865009981F85100FFE700990020C6
:103B300081F85000FFE700208DF80700FFE79DF8AF
:103B4000070002B080BD000081B0009043F23C61EC
:103B5000C2F200010220086001B0704780B588B051
:103B6000079007980068406806900798006880688A
:103B700005909DF8140000F040010020B0EB911F6B
:103B800011D1FFE70598C00768B1FFE79DF818005D
:103B900000F040010020B0EB911F04D0FFE7079830
:103BA000016C8847F0E09DF8140000F0020100204D
:103BB000B0EB510F0BD0FFE79DF818100020B0EBD1
:103BC000D11F04D0FFE70798416C8847DCE09DF8DF
:103BD000140000F020010020B0EB511F10D1FFE7CE
:103BE0009DF8140000F040010020B0EB911F07D1B8
:103BF000FFE79DF81500C007002800F0C580FFE72B
:103C00009DF8180000F020010020B0EB511F00F0DB
:103C1000BB80FFE79DF8140000F040010020B0EBEE
:103C2000911F28D0FFE7079890F85100032813D080
:103C3000FFE70799486D40F004004865FFE7002062
:103C4000049007980068C06804900798006880682E
:103C500004900498FFE70DE0FFE700200390079829
:103C60000068C06803900798006880680390039814
:103C7000FFE789E0FFE79DF8140000F02001002035
:103C8000B0EB511F15D0FFE70799486D40F00100D8
:103C90004865FFE70020029007980068806802905E
:103CA00007980168086820F0400008600298FFE764
:103CB000FFE79DF81500C00778B1FFE70799486D49
:103CC00040F008004865FFE7002001900798006871
:103CD000806801900198FFE7FFE70798406D002892
:103CE00051D0FFE707980168486820F0E00048607D
:103CF0000799012081F85100069800F0020002287F
:103D000005D0FFE79DF81800C007B8B3FFE7079894
:103D10000168486820F0030048600798C06CA0B1B3
:103D2000FFE70798C16C47F6BD40C0F60000086584
:103D30000798C06CFDF722F930B1FFE70799486D8D
:103D400040F040004865FFE7FFE70798806CA0B1AE
:103D5000FFE70798816C47F6BD40C0F60000086594
:103D60000798806CFDF70AF930B1FFE70799486DB5
:103D700040F040004865FFE7FFE703E00798FFF7E2
:103D8000E3FEFFE7FFE7FFE708B080BD80B584B042
:103D90000290029820B9FFE701208DF80F0071E032
:103DA0000298406A60B9FFE702984068B0F5827FE8
:103DB00001D1FFE703E002990020C861FFE705E0B9
:103DC00002990020086102994861FFE702990020EA
:103DD0008862029890F8510040B9FFE702990020EC
:103DE00081F85000029800F055F8FFE70299022090
:103DF00081F8510002980168086820F040000860CE
:103E0000029A019211685068D2F808C0D36800F491
:103E100082700CF4044C604403F40063184413698A
:103E200003F002031844536903F001031844936933
:103E300003F400731844D36903F038031844136A79
:103E400003F080031843926A02F4005210430860A2
:103E5000029A508B00F004001168526A02F01002BE
:103E60001044486002980168C86920F40060C86185
:103E7000029900204865029A012182F851108DF8BC
:103E80000F00FFE79DF80F0004B080BD81B00090E7
:103E900001B0704780B598B01790FFE700201190EF
:103EA00043F63000C4F20200016841F002010160F3
:103EB000006800F0020011901198FFE7FFE7002072
:103EC000109043F63000C4F20200016841F0020194
:103ED0000160006800F0020010901098FFE7FFE713
:103EE00000200F9043F63000C4F20200016841F058
:103EF00002010160006800F002000F900F98FFE7D8
:103F0000FFE700200E9043F64400C4F2020001686F
:103F100041F480510160006800F480500E900E98CA
:103F2000FFE7082012900220139000201490032035
:103F3000159005200A90169040F20040C4F202004D
:103F400012A90C91FDF762FB0A980C99402212927B
:103F500016900020C4F202000B90FDF757FB0A9A5E
:103F60000B980C99802312931692FDF74FFBFFE7F5
:103F700000200D9043F63000C4F20200016841F4C5
:103F800080010160006800F480000D900D98FFE74B
:103F900042F27850C2F20000089046F25841C4F252
:103FA000020101604FF0C06141600021099141624E
:103FB00003228262C162016340228260C1604FF4C9
:103FC0008062026141618161C1610162FCF7F8FFB9
:103FD00008B1FFE7FFE742F27850C2F20000FDF7B8
:103FE000D9F908B1FFE7FFE7FFE7179842F27851E8
:103FF000C2F20001816417988863FFE742F218500B
:10400000C2F20000069046F21041C4F202010160C3
:104010004FF0C0614160002107914162032282623A
:10402000C16201638160C1604FF4806202614161DD
:104030008161C1614FF400310162FCF7C1FF08B139
:10404000FFE7FFE742F21850C2F20000FDF7A2F9C5
:1040500008B1FFE7FFE7FFE7179842F21851C2F2F5
:104060000001C16417988863FFE73B20019001219C
:10407000039100220492FDF781FD0198FDF774FD84
:104080000399049A38200290FDF778FD0298FDF715
:104090006BFD0399049A23200590FDF76FFD0598A9
:1040A000FDF762FD18B080BD81B0009001B070478F
:1040B00081B0009001B0704780B588B0069005913E
:1040C0000492ADF80E3000208DF80600FFE7069848
:1040D00090F85000012804D1FFE702208DF81F005E
:1040E000EFE00699012081F85000FFE7FFE706980E
:1040F00090F851008DF807000698406802909DF8EE
:104100000700012812D0FFE70298B0F5827F09D19D
:10411000FFE70698806828B9FFE79DF807000428A4
:1041200004D0FFE702208DF80600BFE0059838B103
:10413000FFE7049820B1FFE7BDF80E0020B9FFE7C4
:1041400001208DF80600B1E0069890F8510004288F
:1041500005D0FFE70699052081F85100FFE7069991
:10416000002048650599069A1163BDF80E10069A5D
:104170009186BDF80E10069AD1860499069A91632D
:10418000BDF80E10069A9187BDF80E10069AD187D9
:104190000699086406994864069890F85100042826
:1041A0000FD1FFE70698C16C47F61150C0F600002A
:1041B00008640698C16C47F64150C0F60000C86319
:1041C0000EE00698C16C47F62950C0F6000008645E
:1041D0000698C16C47F6E550C0F60000C863FFE7DB
:1041E0000698C16C47F6DD40C0F60000C86406982A
:1041F000C16C00200865069B19689A6BD86C0C315D
:10420000DB8FFDF77FF960B1FFE70699486D40F05D
:104210001000486501208DF80600069981F85100CC
:1042200044E006980168486840F00100486006983C
:10423000816C002008640699896CC8630699896CB2
:10424000C8640699896C0865069B1A68196B986C96
:104250000C32DB8EFDF756F960B1FFE70699486D29
:1042600040F01000486501208DF80600069981F89D
:1042700051001BE006980068006800F040004028EC
:1042800007D0FFE706980168086840F04000086022
:10429000FFE706980168486840F0200048600698EB
:1042A0000168486840F002004860FFE7FFE70699B0
:1042B000002081F85000FFE79DF806008DF81F00F0
:1042C000FFE79DF81F0008B080BD000081B000909E
:1042D00043F23C61C2F200010120086001B0704766
:1042E00081B0009001B0704780B582B00190019814
:1042F00003F034FF02B080BDFFE7FEE710B598B0D1
:1043000016901591169818B1FFE7159820B9FFE798
:104310000920ADF85E00F5E21698006920B9FFE7C4
:104320000920ADF85E00EDE21698806920B9FFE73C
:104330000920ADF85E00E5E200201390169948715F
:104340001598006868B1FFE71598006840F6FF010E
:10435000C0F23D01884204D8FFE70C20ADF85E00B2
:10436000D0E21598006868B1FFE71598006845F637
:104370000121C0F26221884204D3FFE70C20ADF88E
:104380005E00BFE21598406868B1FFE71598406885
:1043900048F27F41C0F21E01884204D8FFE70C209A
:1043A000ADF85E00AEE21598406868B1FFE7159879
:1043B000406845F60121C0F26221884204D3FFE73C
:1043C0000C20ADF85E009DE2002012901598006868
:1043D00020B1FFE715980068129003E01598406837
:1043E0001290FFE7129820B9FFE70420ADF85E00B5
:1043F00088E21698C06842F60151C0F23111884235
:1044000004D3FFE7CD20ADF85E007BE2169800797B
:10441000C00790B9FFE7169A13699068D179D268FE
:104420009847ADF85200BDF8520028B1FFE7BDF83B
:104430005200ADF85E0065E2FFE7169802F0EEFB71
:10444000ADF85200BDF8520028B1FFE7BDF85200A8
:10445000ADF85E0056E2169900204871169840F6B5
:10446000FC314AF65522CAF6552203F01DF8ADF884
:104470005200BDF8520028B1FFE7BDF85200ADF878
:104480005E003FE2169840F6FC3113AA02F0C4FA2F
:10449000ADF85200BDF852000D2808D0FFE7139880
:1044A0004AF65521CAF65521884204D0FFE701207B
:1044B000ADF85E0026E2BDF8520028B1FFE7BDF876
:1044C0005200ADF85E001DE200208DF847001598FF
:1044D000007A022805D0FFE71598007A03280CD14E
:1044E000FFE79DF8470040F001008DF84700129863
:1044F00000EB800040001290FFE7129845F6012182
:10450000C0F26221884204D3FFE70C20ADF85E00C0
:10451000F8E11598007A012805D0FFE71598007A90
:1045200002280AD1FFE79DF8470040F010008DF8FF
:104530004700129840081290FFE71598C06828B10C
:10454000FFE712981599C9680860FFE7129845F6C9
:104550000121C0F26221884204D3FFE70C20ADF8AC
:104560005E00CFE11598407A07280BD0FFE7159839
:10457000407A00F003019DF8470040EA41108DF8B1
:104580004700FFE79DF8470040F008008DF847001E
:1045900016989DF847204FF4606102F0C9FFADF80E
:1045A0005200BDF8520028B1FFE7BDF85200ADF847
:1045B0005E00A7E19DF8470000F0110004308DF87F
:1045C000460016988069804704301090FFE71698DF
:1045D00040F601610DF1470202F086FAADF8520093
:1045E000BDF8520028B1FFE7BDF85200ADF85E00FB
:1045F00088E19DF8470000F015009DF846108842BC
:1046000001D1FFE70BE01698806980471099884236
:1046100004D3FFE70820ADF85E0073E1D7E71698F2
:10462000C0681299B0EB510F04D9FFE7CD20ADF867
:104630005E0067E11698007900F00100012812DBA6
:10464000FFE7169A13699068D179D2689847ADF858
:104650005200BDF8520028B1FFE7BDF85200ADF896
:104660005E004FE1FFE71698007900F02000012876
:1046700010DBFFE71698032100F094FFADF852001D
:10468000BDF8520028B1FFE7BDF85200ADF85E005A
:1046900038E1FFE716984FF460610DF1470202F030
:1046A00023FAADF85200BDF8520028B1FFE7BDF87B
:1046B0005200ADF85E0025E19DF8470000F00803C8
:1046C0001699487940F00402002BC8BF1046487183
:1046D0009DF8470000F0F7008DF8470016989DF808
:1046E00047204FF4606102F023FFADF85200BDF89F
:1046F000520028B1FFE7BDF85200ADF85E0001E1BD
:104700001698007900F0040001280FDBFFE71698E7
:1047100007F0AAF8ADF85200BDF8520028B1FFE743
:10472000BDF85200ADF85E00ECE031E0169840F6BE
:10473000FC314AF65522CAF6552202F0B5FEADF814
:104740005200BDF8520028B1FFE7BDF85200ADF8A5
:104750005E00D7E0169840F6FC3113AA02F05CF92F
:10476000ADF85200BDF8520028B1FFE7BDF8520085
:10477000ADF85E00C6E013984AF65521CAF65521F9
:10478000884204D0FFE76420ADF85E00BAE0FFE79E
:104790001698007900F00200012812DBFFE7169856
:1047A00001210622552300F03DFFADF85200BDF86F
:1047B000520028B1FFE7BDF85200ADF85E00A1E05D
:1047C000FFE71698007900F0080001280FDBFFE7EB
:1047D000169802F045F8ADF85200BDF8520028B125
:1047E000FFE7BDF85200ADF85E008BE0FFE71698DA
:1047F0008179032202F09AFBADF85200BDF8520015
:1048000028B1FFE7BDF85200ADF85E007AE01698D7
:10481000DDF854E09EF809C09EF81E109EF81F2097
:104820009EF820309EF82140ACF1070CBCFA8CFCBD
:104830004FEA5C1CEE46CEF80040CEF804C001F012
:1048400011FCADF85200BDF8520028B1FFE7BDF8E9
:104850005200ADF85E0055E0159880690F901298EF
:10486000159A1169526903AB00F050F8ADF8520087
:10487000BDF8520028B1FFE7BDF85200ADF85E0068
:1048800040E0169815994969B1FA81F14A0903A9DE
:1048900002F0B2FAADF85200BDF8520028B1FFE7BD
:1048A000BDF85200ADF85E002CE0169802210022FF
:1048B00002F03EFEADF85200BDF8520028B1FFE70D
:1048C000BDF85200ADF85E001CE0169815990A7FFD
:1048D000497F00F09DFDADF85200BDF8520028B1AF
:1048E000FFE7BDF85200ADF85E000BE01698159991
:1048F000498C01F095FBADF85200BDF85200ADF8BF
:104900005E00FFE7BDF85E0018B010BD80B59AB03C
:104910001890179116921593159820B9FFE7092062
:10492000ADF86600A1E2189848F27F41C0F21E017E
:10493000884204D8FFE70920ADF8660095E2189890
:1049400045F60121C0F26221884204D3FFE7092025
:10495000ADF8660089E217984EF64701C0F20101F2
:10496000884204D8FFE70E20ADF866007DE2179874
:1049700044F24121C0F20F01884204D3FFE70E2028
:10498000ADF8660071E2169868B1FFE716984AF232
:104990001F11C0F20701884204D8FFE70E20ADF8CE
:1049A000660062E2FFE7169841F20121C0F27A0147
:1049B000884204D3FFE70E20ADF8660055E20020E0
:1049C00011904FF48070109040F281110F910E9170
:1049D0004FF0FF310D910C90FFE70C9801380C90CF
:1049E000002800F01481FFE718981799B0FBF1F048
:1049F0000C99B0FBF1F00B900B98042805D3FFE75E
:104A00000B98B0F5C17F01D3FFE7E6E7169898B1A0
:104A1000FFE718981699B0FBF1F00C99B0FBF1F094
:104A200011901198042805D3FFE71198B0F5C17FC4
:104A300001D3FFE7D1E7FFE7189A17980B9948438E
:104A40000C9900FB112013901698C8B1FFE713983A
:104A500018B9FFE701201390FFE7189A16981199EB
:104A600048430C9900FB11201290129818B9FFE7E7
:104A700001201290FFE7139812994843149002E026
:104A800013981490FFE714980D99884209D8FFE70E
:104A900014980D900C9810900B980F9011980E9000
:104AA000FFE70B98B0F5C07F38D8FFE717980B9950
:104AB000013148430C9948431899401A13901698AD
:104AC000C8B1FFE7139818B9FFE701201390FFE77B
:104AD000189A1698119948430C9900FB11201290CE
:104AE000129818B9FFE701201290FFE71398129966
:104AF0004843149002E013981490FFE714980D991E
:104B000088420AD8FFE714980D900C9810900B98E3
:104B100001300F9011980E90FFE7FFE716980028DC
:104B200074D0FFE71198B0F5C07F31D8FFE7189A2D
:104B300017980B9948430C9900FB11201390139878
:104B400018B9FFE701201390FFE71698119901317A
:104B500048430C9948431899401A1290129818B972
:104B6000FFE701201290FFE7139812994843149031
:104B700014980D9988420AD8FFE714980D900C9864
:104B800010900B980F90119801300E90FFE7FFE7FF
:104B90000B98B0F5C07F38D8FFE71198B0F5C07F0B
:104BA00033D8FFE717980B99013148430C994843D4
:104BB0001899401A1390139818B9FFE70120139021
:104BC000FFE716981199013148430C994843189909
:104BD000401A1290129818B9FFE701201290FFE7CF
:104BE000139812994843149014980D9988420BD841
:104BF000FFE714980D900C9810900B9801300F90CF
:104C0000119801300E90FFE7FFE7FFE7E5E60D980A
:104C1000013020B9FFE76520ADF8660025E1109866
:104C20000138159908600F984CF6CD41CCF6CC416F
:104C3000A0FB012080080A900F98A0FB01218908A1
:104C400001EB8101401A032804D3FFE70A980130E1
:104C50000A90FFE70A9818B9FFE701200A90FFE7DA
:104C60000A98812803D3FFE780200A90FFE70A987B
:104C70000138159988600F990A98C0430844099033
:104C80000998012803D8FFE702200990FFE7099857
:104C9000B0F5807F04D9FFE74FF480700990FFE7FB
:104CA00009980138159948600A98089009980A9956
:104CB000884203D2FFE709980890FFE7089818B9DF
:104CC000FFE701200890FFE70898812803D3FFE75A
:104CD00080200890FFE7089801381599C860169859
:104CE000002800F09680FFE71098013815990861B8
:104CF0000E984CF6CD41CCF6CC41A0FB01208008AB
:104D000007900E98A0FB0121890801EB8101401A50
:104D1000032804D3FFE7079801300790FFE70798BF
:104D200018B9FFE701200790FFE70798812803D310
:104D3000FFE780200790FFE7079801381599886101
:104D40000E990798C043084406900698012803D896
:104D5000FFE702200690FFE70698B0F5807F04D9B0
:104D6000FFE74FF480700690FFE706980138159929
:104D700048610798059006980799884203D2FFE793
:104D800006980590FFE7059818B9FFE70120059000
:104D9000FFE70598112803D3FFE710200590FFE7F0
:104DA000059801381599C861169844F24021C0F25F
:104DB0000F01884205D3FFE71599022081F82000F2
:104DC00004E01599012081F82000FFE7109806996A
:104DD00048430490049803900398402803D3FFE7C6
:104DE0003F200390FFE703981599486204980399C0
:104DF000401A02900298402803D3FFE73F20029018
:104E0000FFE70298159988621599012081F82C0016
:104E100014E0159900200861159A03219161159BF2
:104E20000E225A61159AD161159A022182F820103A
:104E3000159A1021516215998862FFE70020ADF89C
:104E400006001598006B58B1FFE718981599169A47
:104E5000B2FA82F2520900F00DF8ADF80600FFE751
:104E6000BDF80600ADF86600FFE7BDF866001AB0B1
:104E700080BD000093B0119010918DF83F201098E4
:104E800020B9FFE70920ADF84A002EE21098006B28
:104E900020B9FFE70920ADF84A0026E2119848F250
:104EA0007F41C0F21E01884204D8FFE70920ADF817
:104EB0004A001AE2119845F60121C0F262218842A7
:104EC00004D3FFE70920ADF84A000EE200200E905F
:104ED000109890ED000AB8EE400AB7EE001A30EED6
:104EE000010A9FEDD01A20EE010A9DED111AB8EECD
:104EF000411A80EE010A8DED0D0A10994868896803
:104F0000401A0C909DED0D0A9DED0C1AB8EE411A59
:104F100020EE010AB2EE041A80EE010A9FEDC21AD9
:104F200030EE010A1098006BBCEEC00A80ED020A58
:104F3000109841688068084403300B9010984068CE
:104F4000023000EE100AB8EE400A9DED0B1AB8EEE2
:104F5000411A80EE010A9FEDE71A20EE010A8DED5D
:104F60000A0A9DED0A0A20EE010A1098006BBCEEB9
:104F7000C00A80ED030A119810990A68096B013282
:104F8000B0FBF2F00B9AB0FBF2F008609DF83F0026
:104F9000C00778BBFFE71098416980690844033077
:104FA0000E9010984069023000EE100AB8EE400AE8
:104FB0009DED0E1AB8EE411A80EE010A9FEDCD1A52
:104FC00020EE010A8DED0A0A9DED0A0A20EE010A83
:104FD0001098006BBCEEC00A80ED040A119810997D
:104FE0000A69096B0132B0FBF2F00E9AB0FBF2F0E5
:104FF000486007E01098016B002008611099096B68
:105000004860FFE7109840680C99401A01300990F9
:105010000998109989680131884203D8FFE70998F7
:10502000059004E01098806801300590FFE705982E
:1050300008901098C168006B013100EE101AB8EEAC
:10504000400A9DED0B1AB8EE411AB3EE042A21EE88
:10505000021A80EE010A9FEDA81A20EE010ABCEEAA
:10506000C00A80ED050A1098016B486988629DEDC1
:10507000080AB8EE400A9DED0B2AB8EE422A1098B5
:105080008168006B013103EE101AB8EE433AB2EEBC
:105090000A4A22EE042A32EE432A32EE022A80EE37
:1050A000020A20EE010ABCEEC00A80ED060A109842
:1050B000016B8869896A884205D2FFE71098006B06
:1050C0008069049004E01098006B806A0490FFE708
:1050D00004981099096B88629DF83F00C00758B189
:1050E000FFE71098016B0020C8611099096B0862F6
:1050F0001099096B4862F4E01098C169006B0131A6
:1051000000EE101AB8EE400A9DED0E1AB8EE411AE4
:10511000B3EE042A21EE021A80EE010A9FED761A00
:1051200020EE010ABCEEC00A80ED070A1098016B60
:10513000C869896A884205D2FFE71098006BC06988
:10514000039004E01098006B806A0390FFE70398D7
:105150001099096B88629DED080AB8EE400A9DED32
:105160000E1AB8EE412A10988169006B013101EEE8
:10517000101AB8EE411AB9EE083A22EE032A31EEBF
:10518000021A9DED0B2AB8EE422AB9EE0C3A22EE35
:10519000032A31EE021A31EE011A80EE010A9FED68
:1051A000571A20EE010ABCEEC00A80ED080A1098DA
:1051B000016B086A896A884205D2FFE71098006B84
:1051C000006A029004E01098006B806A0290FFE78A
:1051D00002981099096B8862109801680069013182
:1051E00000EE101AB8EE400A013001EE100AB8EED7
:1051F000411A80EE010A8DED070A9DED070ABFEE08
:10520000001A30EE010A8DED060A9DED060AB5EE94
:10521000400AF1EE10FA09DDFFE79DED060A8DED7B
:10522000010A08E0286B6E4E00004CC29FED340A64
:105230008DED010AFFE79DED010A8DED060A10983C
:1052400082688169C369006B013300EE103AB8EEE1
:10525000400A9DED061A30EE410A9DED0B1AB8EE9C
:10526000412A013201EE102AB8EE411A32EE022A2A
:1052700031EE421A9DED073A013102EE101AB8EEF6
:10528000422A21EE031A31EE421A9DED0E2AB8EEA3
:10529000422AB9EE003A22EE032A31EE021A31EE2A
:1052A000011A80EE010A9FED151A20EE010ABCEEEC
:1052B000C00A80ED090A1098016B486A896A884221
:1052C00005D2FFE71098006B406A009004E0109848
:1052D000006B806A0090FFE700981099096B886264
:1052E000FFE70020ADF84A00FFE7BDF84A0013B021
:1052F000704700BF0000C84200401C4600401CC66A
:105300000000000080B582B00190019840F60A616B
:10531000002202F00DF902B080BD000080B582B01D
:10532000019001984FF46161002202F001F902B08E
:1053300080BD000080B586B004908DF80F100498F1
:105340009DF90F1001F0D0FCADF80C00BDF80C0079
:1053500028B1FFE7BDF80C00ADF816001BE09DF882
:105360000F008DF8000000208DF801008DF802007C
:105370008DF8030002218DF804108DF805008DF8DA
:1053800006008DF8070002900498694600F07AF94B
:10539000ADF81600FFE7BDF8160006B080BD0000AE
:1053A00080B584B00290ADF80610BDF806004FF24B
:1053B0000C01084204D1FFE70020ADF80E0022E006
:1053C0000020ADF8040002981C2101AA01F046FB60
:1053D000ADF80200BDF8020028B1FFE7BDF80200F9
:1053E000ADF80E000FE0BDF80610BDF804008843CC
:1053F000ADF804000298BDF804201C2102F06AF800
:10540000ADF80E00FFE7BDF80E0004B080BD00004F
:1054100080B586B004908DF80F108DF80E2004989A
:10542000002102AA01F03EFBADF80C00BDF80C0013
:1054300028B1FFE7BDF80C00ADF81600ADE002980A
:1054400000F460010420B0EB515F04D0FFE75D2061
:10545000ADF81600A1E002984EF69F71C0F6180153
:1054600008400290029840F0806002909DF80E1073
:10547000029840EA017002909DF80F0000F00100D0
:10548000012805DBFFE7029840F480200290FFE747
:105490009DF80F0000F00200012805DBFFE70298ED
:1054A00040F400300290FFE79DF80F0000F0040088
:1054B000012805DBFFE7029840F480300290FFE707
:1054C0009DF80F0000F00800012805DBFFE70298B7
:1054D00040F480500290FFE79DF80F0000F01000AC
:1054E000012805DBFFE7029840F040000290FFE74B
:1054F0009DF80F0000F02000012805DBFFE702986F
:1055000040F020000290FFE70498029A002101F089
:10551000F9FFADF80C00BDF80C0028B1FFE7BDF8AD
:105520000C00ADF8160038E004980F210DF10702C9
:1055300001F0DAFAADF80C00BDF80C0028B1FFE775
:10554000BDF80C00ADF8160027E09DF8070000F04C
:10555000FE008DF807009DF80F0000F040000128C4
:105560000CDBFFE79DF8070040F001008DF8070015
:105570000499487940F04000487105E00499487961
:1055800000F0BF004871FFE704989DF807200F2145
:1055900001F0CEFFADF81600FFE7BDF8160006B02B
:1055A00080BD000080B582B001908DF80310019895
:1055B0009DF8032040F60B6101F0BAFF02B080BDF8
:1055C00080B584B002908DF80710029800210DF18B
:1055D000030201F089FAADF80400BDF8040028B117
:1055E000FFE7BDF80400ADF80E0017E09DF80300DA
:1055F00000F0E0008DF803009DF8070000F01F01A7
:105600009DF8030008438DF8030002989DF80320DD
:10561000002101F08DFFADF80E00FFE7BDF80E0090
:1056200004B080BD80B584B003908DF80B108DF868
:105630000A208DF809300020ADF806009DF80A1008
:105640009DF8060008438DF806009DF80B00C00782
:1056500038B1FFE79DF8060040F001008DF8060024
:10566000FFE79DF8090000F03F008DF80700039860
:1056700040F60C610DF10602022301F0C3FE04B0F6
:1056800080BD000080B586B004900391039820B9D6
:10569000FFE70920ADF8160022E1039890F9000019
:1056A000013058B1FFE7039890F9000030B1FFE7EF
:1056B000039890F90000202804DBFFE70920ADF8EB
:1056C00016000DE104980DF1090100F0B7FFADF8E7
:1056D0000A00BDF80A0028B1FFE7BDF80A00ADF8DE
:1056E0001600FDE09DF80900042804D0FFE75D20C6
:1056F000ADF81600F4E008208DF8030003988078D8
:10570000400701900398807801F010F901469DF858
:10571000030008448DF803000398407800F01F014F
:10572000019840EA016001900398007900F00301BC
:10573000019840EA415001900398407900F01F0120
:10574000019840EA014001900398C078012841D1B6
:10575000FFE7019840F0800001900398C07900F0C5
:105760001000012805DBFFE7019840F010000190D0
:10577000FFE70398807900F04000012805DBFFE790
:10578000019840F040000190FFE70398C07900F0D5
:105790000400012805DBFFE7019840F004000190B8
:1057A000FFE70398C07900F00200012805DBFFE75E
:1057B000019840F002000190FFE70398C07900F0E3
:1057C0000100012805DBFFE7019840F0010001908E
:1057D000FFE741E00398807900F0200001280ADB10
:1057E000FFE7019840F0200001909DF8030004308D
:1057F0008DF80300FFE70398C07900F00800012846
:1058000005DBFFE7019840F008000190FFE70398EF
:10581000C07900F00400012805DBFFE7019840F0A3
:1058200004000190FFE70398C07900F0020001280E
:1058300005DBFFE7019840F002000190FFE70398C5
:10584000C07900F00100012805DBFFE7019840F076
:1058500001000190FFE7FFE7039890F9000000EBDB
:105860004001502000EB8100ADF800000498BDF825
:10587000001001AA042301F0C5FDADF80A00BDF82F
:105880000A0028B1FFE7BDF80A00ADF8160027E0CE
:105890000398806890B1FFE79DF803000399896839
:1058A00008719DF8030003994A78013250438968D2
:1058B00008800398816800204880FFE79DF8030076
:1058C0000399497801314843B0F5006F04D9FFE7E7
:1058D0000620ADF8160003E00020ADF81600FFE743
:1058E000BDF8160006B080BD80B590B00E900D9149
:1058F0000C920D9820B9FFE70920ADF83E00DBE1DE
:105900000C9820B9FFE70020ADF83E00D4E10C98D8
:10591000222804D3FFE70220ADF83E00CCE10020AE
:10592000ADF82C008DF823008DF822000790FFE7DA
:1059300007980C99884268D2FFE70D98079901EB08
:10594000410110F921000130002859D1FFE79DF8ED
:10595000220001308DF822009DF82200022804DB8D
:10596000FFE76620ADF83E00A6E10D98079901EB30
:10597000410100EB81008068B0FA80F040098DF8A9
:1059800023009DF82300C00748B1FFE70D98079951
:1059900001EB410100EB810109A88860FFE70E9847
:1059A0000D99079A02EB420201EB8202012100F0FD
:1059B000F5FBADF82E00BDF82E0028B1FFE7BDF8CD
:1059C0002E00ADF83E0077E10D98079901EB4101FB
:1059D00000EB810080680188BDF82C000844ADF818
:1059E0002C009DF82300C00748B1FFE70D980799E8
:1059F00001EB410100EB810100208860FFE7FFE738
:105A0000FFE707980130079092E79DF8220088B9D8
:105A1000FFE70E980022114600F0C0FBADF82E0003
:105A2000BDF82E0028B1FFE7BDF82E00ADF83E000E
:105A300042E1FFE700208DF81B000590FFE7059885
:105A40000C99884273D2FFE70D98059901EB41014B
:105A500010F92100002865D1FFE79DF81B000130F7
:105A60008DF81B009DF81B00022804DBFFE7672070
:105A7000ADF83E0020E10D98059901EB410100EBE6
:105A800081008068B0FA80F040098DF823009DF80D
:105A90002300C00748B1FFE70D98059901EB4101CC
:105AA00000EB810109A88860FFE70E980D99059A1F
:105AB00002EB420201EB8202012100F049FCADF849
:105AC0002E00BDF82E0028B1FFE7BDF82E00ADF87E
:105AD0003E00F1E0BDF82C0000F580600D99059ABC
